:10010F000F0820203230323031303137313020205B
:10011F00000E172020323032303130313731352058
:01012F0000CF
:10008F00120131E4F525C3E5259410748094805056
:10009F000E74082525F8E6FF120154052580E77F29
:1000AF00C012014AE4F525C3E525941074809480AD
:1000BF0050D174172525F8E6FF120154052580E766
:1000CF00C2918FA07F017E001200E0D2907F057E4B
:0100DF000020
:1000E000D3EF9400EE940040257DC7EDD3940074C7
:1000F00080948040127C01ECD39400748094804002
:0E010000031C80F31D80E4EF1F70D51E80D21B
:01010E0022CE
:0A014A00C290C2921200CFC29022B0
:0A015400C290D2921200CFC2902296
:100131007F0112014A7F0C12014A7F0212014A7F9C
:090141000612014A7F3802014A4E
:03000000020003F8
:0C000300787FE4F6D8FD75812502004AE4
:10000F0002008FE493A3F8E493A34003F68001F278
:10001F0008DFF48029E493A3F85407240CC8C333F2
:10002F00C4540F4420C8834004F456800146F6DFC1
:10003F00E4800B010204081020408090010FE47E41
:10004F00019360BCA3FF543F30E509541FFEE493B6
:10005F00A360010ECF54C025E060A840B8E493A37D
:10006F00FAE493A3F8E493A3C8C582C8CAC583CAA8
:10007F00F0A3C8C582C8CAC583CADFE9DEE780BE60
:0101300000CE
:00000001FF
