:0300000002003EBD
:0C003E00787FE4F6D8FD75810F02008584
:10001D00AFA0C7E5E86D6FA1EFE9EB6E0FE64F4BB3
:08002D00C81000400420100877
:0F01BC00040B04030201010800010900010A00FD
:10000300EF1FAA0670011E4A600FE4FDEDC3947151
:090013007480948050EA0D80F322
:01001C0022C1
:10016900E4FCECC39404748094805031ECB50F0E18
:10017900240BF8E690001D934410F580800B740B56
:100189002CF8E690001D93F580EC90003193F5A0D2
:0D0199007F027E0012000353A0C30C80C53E
:0101A6002236
:1001A7002095037FDF2220B3037FEF2220B4037F54
:0501B700F7227FFF228A
:10012700E4FE1201A7EF5438FF6438600F0509E5B4
:1001370009640A702A750A018F088023E4F509E526
:100147000A6401701AF50AE50824D8600C24F860DF
:100157000C2418700A7E0180067E0280027E03AF9F
:010167000691
:010168002274
:1000CA00120127EF24FE601914602F2402704205E2
:1000DA000FD3E50F9403748094804035E4F50F80C4
:1000EA0030740B250FF806E6D3940F748094804081
:1000FA0020740B250FF8E4F68017740B250FF816F9
:10010A00E6D3940F748094804007740B250FF87619
:0D011A000F1201697F057E0012000380A313
:10004A000200CAE493A3F8E493A34003F68001F202
:10005A0008DFF48029E493A3F85407240CC8C333B7
:10006A00C4540F4420C8834004F456800146F6DF86
:10007A00E4800B01020408102040809001BCE47E59
:10008A00019360BCA3FF543F30E509541FFEE4937B
:10009A00A360010ECF54C025E060A840B8E493A342
:1000AA00FAE493A3F8E493A3C8C582C8CAC583CA6D
:1000BA00F0A3C8C582C8CAC583CADFE9DEE780BE25
:0101CB000033
:00000001FF
